{
  "transactions": [
    {
      "hash": "0x9c0822559b35bcf63de0448df90e6c11726e9c140096fba27dc17e2c47853849",
      "transactionType": "CALL",
      "contractName": null,
      "contractAddress": "0x3ba09c51895dacb90273a2a40c95369a5a1b4bfe",
      "function": "registerItem(uint256,uint256,string)",
      "arguments": [
        "26",
        "0",
        ""
      ],
      "transaction": {
        "from": "0x43a5ba0da132b21bdacfbc4392b72eebaf6f2d82",
        "to": "0x3ba09c51895dacb90273a2a40c95369a5a1b4bfe",
        "gas": "0xbf48",
        "value": "0x0",
        "input": "0x7e596fc7000000000000000000000000000000000000000000000000000000000000001a000000000000000000000000000000000000000000000000000000000000000000000000000000000000000000000000000000000000000000000000000000600000000000000000000000000000000000000000000000000000000000000000",
        "nonce": "0x1d1",
        "chainId": "0xa4ec"
      },
      "additionalContracts": [],
      "isFixedGasLimit": false
    },
    {
      "hash": "0xe46ba10d6e56557e24c796a2132451be7a918dbac38a5fb01673458791015852",
      "transactionType": "CALL",
      "contractName": null,
      "contractAddress": "0x95d167f569cf05c967c0432e3123baeac5d8d78d",
      "function": "listItem(uint256,uint256)",
      "arguments": [
        "26",
        "90000000000000000000"
      ],
      "transaction": {
        "from": "0x43a5ba0da132b21bdacfbc4392b72eebaf6f2d82",
        "to": "0x95d167f569cf05c967c0432e3123baeac5d8d78d",
        "gas": "0x29d8a",
        "value": "0x0",
        "input": "0x883efa67000000000000000000000000000000000000000000000000000000000000001a000000000000000000000000000000000000000000000004e1003b28d9280000",
        "nonce": "0x1d2",
        "chainId": "0xa4ec"
      },
      "additionalContracts": [],
      "isFixedGasLimit": false
    },
    {
      "hash": "0xada444f8e407d3e95768105cd07f620bccf2bd3a65a09fecfcfd6e87658f0233",
      "transactionType": "CALL",
      "contractName": null,
      "contractAddress": "0x3ba09c51895dacb90273a2a40c95369a5a1b4bfe",
      "function": "registerItem(uint256,uint256,string)",
      "arguments": [
        "27",
        "0",
        ""
      ],
      "transaction": {
        "from": "0x43a5ba0da132b21bdacfbc4392b72eebaf6f2d82",
        "to": "0x3ba09c51895dacb90273a2a40c95369a5a1b4bfe",
        "gas": "0xbf48",
        "value": "0x0",
        "input": "0x7e596fc7000000000000000000000000000000000000000000000000000000000000001b000000000000000000000000000000000000000000000000000000000000000000000000000000000000000000000000000000000000000000000000000000600000000000000000000000000000000000000000000000000000000000000000",
        "nonce": "0x1d3",
        "chainId": "0xa4ec"
      },
      "additionalContracts": [],
      "isFixedGasLimit": false
    },
    {
      "hash": "0x5c28c005959e4b2fbd93885ad6a74691ccbefdd95cb2cd9169cacb74b61b375c",
      "transactionType": "CALL",
      "contractName": null,
      "contractAddress": "0x95d167f569cf05c967c0432e3123baeac5d8d78d",
      "function": "listItem(uint256,uint256)",
      "arguments": [
        "27",
        "350000000000000000000"
      ],
      "transaction": {
        "from": "0x43a5ba0da132b21bdacfbc4392b72eebaf6f2d82",
        "to": "0x95d167f569cf05c967c0432e3123baeac5d8d78d",
        "gas": "0x2c4ff",
        "value": "0x0",
        "input": "0x883efa67000000000000000000000000000000000000000000000000000000000000001b000000000000000000000000000000000000000000000012f939c99edab80000",
        "nonce": "0x1d4",
        "chainId": "0xa4ec"
      },
      "additionalContracts": [],
      "isFixedGasLimit": false
    },
    {
      "hash": "0x046426adfad08c3cb8dc719521310204881561b833082d31de03e1f8c6a6b343",
      "transactionType": "CALL",
      "contractName": null,
      "contractAddress": "0x3ba09c51895dacb90273a2a40c95369a5a1b4bfe",
      "function": "registerItem(uint256,uint256,string)",
      "arguments": [
        "28",
        "0",
        ""
      ],
      "transaction": {
        "from": "0x43a5ba0da132b21bdacfbc4392b72eebaf6f2d82",
        "to": "0x3ba09c51895dacb90273a2a40c95369a5a1b4bfe",
        "gas": "0xbf48",
        "value": "0x0",
        "input": "0x7e596fc7000000000000000000000000000000000000000000000000000000000000001c000000000000000000000000000000000000000000000000000000000000000000000000000000000000000000000000000000000000000000000000000000600000000000000000000000000000000000000000000000000000000000000000",
        "nonce": "0x1d5",
        "chainId": "0xa4ec"
      },
      "additionalContracts": [],
      "isFixedGasLimit": false
    },
    {
      "hash": "0x8134cee9f740fa6892c566ed6034ea7c0c6984b8759fdb3854db02829712b43e",
      "transactionType": "CALL",
      "contractName": null,
      "contractAddress": "0x95d167f569cf05c967c0432e3123baeac5d8d78d",
      "function": "listItem(uint256,uint256)",
      "arguments": [
        "28",
        "140000000000000000000"
      ],
      "transaction": {
        "from": "0x43a5ba0da132b21bdacfbc4392b72eebaf6f2d82",
        "to": "0x95d167f569cf05c967c0432e3123baeac5d8d78d",
        "gas": "0x2c4ff",
        "value": "0x0",
        "input": "0x883efa67000000000000000000000000000000000000000000000000000000000000001c00000000000000000000000000000000000000000000000796e3ea3f8ab00000",
        "nonce": "0x1d6",
        "chainId": "0xa4ec"
      },
      "additionalContracts": [],
      "isFixedGasLimit": false
    }
  ],
  "receipts": [
    {
      "status": "0x1",
      "cumulativeGasUsed": "0x6730d",
      "logs": [
        {
          "address": "0x3ba09c51895dacb90273a2a40c95369a5a1b4bfe",
          "topics": [
            "0xaa9d679c5761cf10e5b65355246a6053673af627163bcfe1310f6463503f52ed",
            "0x000000000000000000000000000000000000000000000000000000000000001a"
          ],
          "data": "0x0000000000000000000000000000000000000000000000000000000000000000",
          "blockHash": "0x36d4745089e8bcc8c27cd2fd6f82d3a99ede096a7b34d6480b732b60f12cb0db",
          "blockNumber": "0x44bf13c",
          "blockTimestamp": "0x6a557992",
          "transactionHash": "0x9c0822559b35bcf63de0448df90e6c11726e9c140096fba27dc17e2c47853849",
          "transactionIndex": "0x3",
          "logIndex": "0x6",
          "removed": false
        }
      ],
      "logsBloom": "0x00000000000000000000000000000000000000000000000000000000000000000000000000000000000000000001000000000000000000000000000000000000000000000000000000000000000000001000000000000000000010001000000000000000000000000000000000000000000000000000000000000000000000000000000000000000000000000000000000200000000000000000000000000000000000000000000000400000000000000000000000008000000000800000000000000000000000000000000000000000000000000000000000000000000000000000000000000000000000000000000000000000000004000000000000000000",
      "type": "0x2",
      "transactionHash": "0x9c0822559b35bcf63de0448df90e6c11726e9c140096fba27dc17e2c47853849",
      "transactionIndex": "0x3",
      "blockHash": "0x36d4745089e8bcc8c27cd2fd6f82d3a99ede096a7b34d6480b732b60f12cb0db",
      "blockNumber": "0x44bf13c",
      "gasUsed": "0x8a7d",
      "effectiveGasPrice": "0x2e90fe98e0",
      "blobGasUsed": "0x64",
      "from": "0x43a5ba0da132b21bdacfbc4392b72eebaf6f2d82",
      "to": "0x3ba09c51895dacb90273a2a40c95369a5a1b4bfe",
      "contractAddress": null,
      "daFootprintGasScalar": "0x1",
      "l1BaseFeeScalar": "0x0",
      "l1BlobBaseFee": "0x7dc146",
      "l1BlobBaseFeeScalar": "0x0",
      "l1Fee": "0x0",
      "l1GasPrice": "0x7cb138b",
      "l1GasUsed": "0x640"
    },
    {
      "status": "0x1",
      "cumulativeGasUsed": "0x857ca",
      "logs": [
        {
          "address": "0x95d167f569cf05c967c0432e3123baeac5d8d78d",
          "topics": [
            "0x5cedb4b4e9d21f2b6ae92d858fd47c1f6ef4af540c48aea4cccc861bdfbffb69",
            "0x000000000000000000000000000000000000000000000000000000000000001a"
          ],
          "data": "0x000000000000000000000000000000000000000000000004e1003b28d9280000",
          "blockHash": "0x36d4745089e8bcc8c27cd2fd6f82d3a99ede096a7b34d6480b732b60f12cb0db",
          "blockNumber": "0x44bf13c",
          "blockTimestamp": "0x6a557992",
          "transactionHash": "0x046426adfad08c3cb8dc719521310204881561b833082d31de03e1f8c6a6b343",
          "transactionIndex": "0x4",
          "logIndex": "0x7",
          "removed": false
        }
      ],
      "logsBloom": "0x00000000000000000000000000000000000000000200000000000000000000000000000000000000000000000000000000000000000000000400000000000000000000000000000800000200000000001000000000000000000000001000000000000000000000000000000000000000000000000000000000000000000000000000000000000000000000000000000000000000000000000000000000000000000000000000000100000000000000000000000000000000000000000000000000000000000000000000000000000000000000000000000000000000000000000000000000000400000000000000000000000000000004000000000000000000",
      "type": "0x2",
      "transactionHash": "0x046426adfad08c3cb8dc719521310204881561b833082d31de03e1f8c6a6b343",
      "transactionIndex": "0x4",
      "blockHash": "0x36d4745089e8bcc8c27cd2fd6f82d3a99ede096a7b34d6480b732b60f12cb0db",
      "blockNumber": "0x44bf13c",
      "gasUsed": "0x1e4bd",
      "effectiveGasPrice": "0x2e90fe98e0",
      "blobGasUsed": "0x64",
      "from": "0x43a5ba0da132b21bdacfbc4392b72eebaf6f2d82",
      "to": "0x95d167f569cf05c967c0432e3123baeac5d8d78d",
      "contractAddress": null,
      "daFootprintGasScalar": "0x1",
      "l1BaseFeeScalar": "0x0",
      "l1BlobBaseFee": "0x7dc146",
      "l1BlobBaseFeeScalar": "0x0",
      "l1Fee": "0x0",
      "l1GasPrice": "0x7cb138b",
      "l1GasUsed": "0x640"
    },
    {
      "status": "0x1",
      "cumulativeGasUsed": "0x8e247",
      "logs": [
        {
          "address": "0x3ba09c51895dacb90273a2a40c95369a5a1b4bfe",
          "topics": [
            "0xaa9d679c5761cf10e5b65355246a6053673af627163bcfe1310f6463503f52ed",
            "0x000000000000000000000000000000000000000000000000000000000000001b"
          ],
          "data": "0x0000000000000000000000000000000000000000000000000000000000000000",
          "blockHash": "0x36d4745089e8bcc8c27cd2fd6f82d3a99ede096a7b34d6480b732b60f12cb0db",
          "blockNumber": "0x44bf13c",
          "blockTimestamp": "0x6a557992",
          "transactionHash": "0x8134cee9f740fa6892c566ed6034ea7c0c6984b8759fdb3854db02829712b43e",
          "transactionIndex": "0x5",
          "logIndex": "0x8",
          "removed": false
        }
      ],
      "logsBloom": "0x00000000000000000000000000000000000000000010000000000000000000000000000000000000000000000001000000000000000000000000000000000000000000000000000000000000000000000000000000000000000010000000000000000000000000000000000000000000000000000000000000000000000000000000000000000000000000000000000000200000000000000000000000000000000000000100000000400000000000000000000000008000000000800000000000000000000000000000000000000000000000000000000000000000000000000000000000000000000000000000000000000000000000000000000000000000",
      "type": "0x2",
      "transactionHash": "0x8134cee9f740fa6892c566ed6034ea7c0c6984b8759fdb3854db02829712b43e",
      "transactionIndex": "0x5",
      "blockHash": "0x36d4745089e8bcc8c27cd2fd6f82d3a99ede096a7b34d6480b732b60f12cb0db",
      "blockNumber": "0x44bf13c",
      "gasUsed": "0x8a7d",
      "effectiveGasPrice": "0x2e90fe98e0",
      "blobGasUsed": "0x64",
      "from": "0x43a5ba0da132b21bdacfbc4392b72eebaf6f2d82",
      "to": "0x3ba09c51895dacb90273a2a40c95369a5a1b4bfe",
      "contractAddress": null,
      "daFootprintGasScalar": "0x1",
      "l1BaseFeeScalar": "0x0",
      "l1BlobBaseFee": "0x7dc146",
      "l1BlobBaseFeeScalar": "0x0",
      "l1Fee": "0x0",
      "l1GasPrice": "0x7cb138b",
      "l1GasUsed": "0x640"
    },
    {
      "status": "0x1",
      "cumulativeGasUsed": "0xac710",
      "logs": [
        {
          "address": "0x95d167f569cf05c967c0432e3123baeac5d8d78d",
          "topics": [
            "0x5cedb4b4e9d21f2b6ae92d858fd47c1f6ef4af540c48aea4cccc861bdfbffb69",
            "0x000000000000000000000000000000000000000000000000000000000000001b"
          ],
          "data": "0x000000000000000000000000000000000000000000000012f939c99edab80000",
          "blockHash": "0x36d4745089e8bcc8c27cd2fd6f82d3a99ede096a7b34d6480b732b60f12cb0db",
          "blockNumber": "0x44bf13c",
          "blockTimestamp": "0x6a557992",
          "transactionHash": "0xada444f8e407d3e95768105cd07f620bccf2bd3a65a09fecfcfd6e87658f0233",
          "transactionIndex": "0x6",
          "logIndex": "0x9",
          "removed": false
        }
      ],
      "logsBloom": "0x00000000000000000000000000000000000000000210000000000000000000000000000000000000000000000000000000000000000000000400000000000000000000000000000800000200000000000000000000000000000000000000000000000000000000000000000000000000000000000000000000000000000000000000000000000000000000000000000000000000000000000000000000000000000000000100000100000000000000000000000000008000000000000000000000000000000000000000000000000000000000000000000000000000000000000000000000000400000000000000000000000000000000000000000000000000",
      "type": "0x2",
      "transactionHash": "0xada444f8e407d3e95768105cd07f620bccf2bd3a65a09fecfcfd6e87658f0233",
      "transactionIndex": "0x6",
      "blockHash": "0x36d4745089e8bcc8c27cd2fd6f82d3a99ede096a7b34d6480b732b60f12cb0db",
      "blockNumber": "0x44bf13c",
      "gasUsed": "0x1e4c9",
      "effectiveGasPrice": "0x2e90fe98e0",
      "blobGasUsed": "0x64",
      "from": "0x43a5ba0da132b21bdacfbc4392b72eebaf6f2d82",
      "to": "0x95d167f569cf05c967c0432e3123baeac5d8d78d",
      "contractAddress": null,
      "daFootprintGasScalar": "0x1",
      "l1BaseFeeScalar": "0x0",
      "l1BlobBaseFee": "0x7dc146",
      "l1BlobBaseFeeScalar": "0x0",
      "l1Fee": "0x0",
      "l1GasPrice": "0x7cb138b",
      "l1GasUsed": "0x640"
    },
    {
      "status": "0x1",
      "cumulativeGasUsed": "0xb518d",
      "logs": [
        {
          "address": "0x3ba09c51895dacb90273a2a40c95369a5a1b4bfe",
          "topics": [
            "0xaa9d679c5761cf10e5b65355246a6053673af627163bcfe1310f6463503f52ed",
            "0x000000000000000000000000000000000000000000000000000000000000001c"
          ],
          "data": "0x0000000000000000000000000000000000000000000000000000000000000000",
          "blockHash": "0x36d4745089e8bcc8c27cd2fd6f82d3a99ede096a7b34d6480b732b60f12cb0db",
          "blockNumber": "0x44bf13c",
          "blockTimestamp": "0x6a557992",
          "transactionHash": "0x5c28c005959e4b2fbd93885ad6a74691ccbefdd95cb2cd9169cacb74b61b375c",
          "transactionIndex": "0x7",
          "logIndex": "0xa",
          "removed": false
        }
      ],
      "logsBloom": "0x00000000000000000000000000000000000000000000000000000000000000000000000000000000000000000001000000000000000000200000000000000000000000000000000000000000000000000000000000000000000010000000000000000000000000000000000000000000000000000000000000000000000000000000000000000000000000000000000200200000000000000000000000000000000000000000000000400002000000000000000000008000000000800000000000000000000000000000000000000000000000000000000000000000000000000000000000000000000000000000000000000000000000000000000000000000",
      "type": "0x2",
      "transactionHash": "0x5c28c005959e4b2fbd93885ad6a74691ccbefdd95cb2cd9169cacb74b61b375c",
      "transactionIndex": "0x7",
      "blockHash": "0x36d4745089e8bcc8c27cd2fd6f82d3a99ede096a7b34d6480b732b60f12cb0db",
      "blockNumber": "0x44bf13c",
      "gasUsed": "0x8a7d",
      "effectiveGasPrice": "0x2e90fe98e0",
      "blobGasUsed": "0x64",
      "from": "0x43a5ba0da132b21bdacfbc4392b72eebaf6f2d82",
      "to": "0x3ba09c51895dacb90273a2a40c95369a5a1b4bfe",
      "contractAddress": null,
      "daFootprintGasScalar": "0x1",
      "l1BaseFeeScalar": "0x0",
      "l1BlobBaseFee": "0x7dc146",
      "l1BlobBaseFeeScalar": "0x0",
      "l1Fee": "0x0",
      "l1GasPrice": "0x7cb138b",
      "l1GasUsed": "0x640"
    },
    {
      "status": "0x1",
      "cumulativeGasUsed": "0xd3656",
      "logs": [
        {
          "address": "0x95d167f569cf05c967c0432e3123baeac5d8d78d",
          "topics": [
            "0x5cedb4b4e9d21f2b6ae92d858fd47c1f6ef4af540c48aea4cccc861bdfbffb69",
            "0x000000000000000000000000000000000000000000000000000000000000001c"
          ],
          "data": "0x00000000000000000000000000000000000000000000000796e3ea3f8ab00000",
          "blockHash": "0x36d4745089e8bcc8c27cd2fd6f82d3a99ede096a7b34d6480b732b60f12cb0db",
          "blockNumber": "0x44bf13c",
          "blockTimestamp": "0x6a557992",
          "transactionHash": "0xe46ba10d6e56557e24c796a2132451be7a918dbac38a5fb01673458791015852",
          "transactionIndex": "0x8",
          "logIndex": "0xb",
          "removed": false
        }
      ],
      "logsBloom": "0x00000000000000000000000000000000000000000200000000000000000000000000000000000000000000000000000000000000000000200400000000000000000000000000000800000200000000000000000000000000000000000000000000000000000000000000000000000000000000000000000000000000000000000000000000000000000000000000000200000000000000000000000000000000000000000000000100000002000000000000000000000000000000000000000000000000000000000000000000000000000000000000000000000000000000000000000000000400000000000000000000000000000000000000000000000000",
      "type": "0x2",
      "transactionHash": "0xe46ba10d6e56557e24c796a2132451be7a918dbac38a5fb01673458791015852",
      "transactionIndex": "0x8",
      "blockHash": "0x36d4745089e8bcc8c27cd2fd6f82d3a99ede096a7b34d6480b732b60f12cb0db",
      "blockNumber": "0x44bf13c",
      "gasUsed": "0x1e4c9",
      "effectiveGasPrice": "0x2e90fe98e0",
      "blobGasUsed": "0x64",
      "from": "0x43a5ba0da132b21bdacfbc4392b72eebaf6f2d82",
      "to": "0x95d167f569cf05c967c0432e3123baeac5d8d78d",
      "contractAddress": null,
      "daFootprintGasScalar": "0x1",
      "l1BaseFeeScalar": "0x0",
      "l1BlobBaseFee": "0x7dc146",
      "l1BlobBaseFeeScalar": "0x0",
      "l1Fee": "0x0",
      "l1GasPrice": "0x7cb138b",
      "l1GasUsed": "0x640"
    }
  ],
  "libraries": [],
  "pending": [],
  "returns": {},
  "timestamp": 1783986578852,
  "chain": 42220,
  "commit": "02cbef4"
}